{
  "_format": "hh-sol-artifact-1",
  "contractName": "SafeDogTestToken",
  "sourceName": "contracts/Greeter.sol",
  "abi": [
    {
      "inputs": [
        {
          "internalType": "string",
          "name": "name",
          "type": "string"
        },
        {
          "internalType": "string",
          "name": "symbol",
          "type": "string"
        },
        {
          "internalType": "uint8",
          "name": "decimals",
          "type": "uint8"
        },
        {
          "internalType": "uint256",
          "name": "cap",
          "type": "uint256"
        },
        {
          "internalType": "uint256",
          "name": "initialBalance",
          "type": "uint256"
        }
      ],
      "stateMutability": "nonpayable",
      "type": "constructor"
    },
    {
      "anonymous": false,
      "inputs": [
        {
          "indexed": true,
          "internalType": "address",
          "name": "owner",
          "type": "address"
        },
        {
          "indexed": true,
          "internalType": "address",
          "name": "spender",
          "type": "address"
        },
        {
          "indexed": false,
          "internalType": "uint256",
          "name": "value",
          "type": "uint256"
        }
      ],
      "name": "Approval",
      "type": "event"
    },
    {
      "anonymous": false,
      "inputs": [],
      "name": "MintFinished",
      "type": "event"
    },
    {
      "anonymous": false,
      "inputs": [
        {
          "indexed": true,
          "internalType": "address",
          "name": "previousOwner",
          "type": "address"
        },
        {
          "indexed": true,
          "internalType": "address",
          "name": "newOwner",
          "type": "address"
        }
      ],
      "name": "OwnershipTransferred",
      "type": "event"
    },
    {
      "anonymous": false,
      "inputs": [
        {
          "indexed": true,
          "internalType": "address",
          "name": "from",
          "type": "address"
        },
        {
          "indexed": true,
          "internalType": "address",
          "name": "to",
          "type": "address"
        },
        {
          "indexed": false,
          "internalType": "uint256",
          "name": "value",
          "type": "uint256"
        }
      ],
      "name": "Transfer",
      "type": "event"
    },
    {
      "inputs": [
        {
          "internalType": "address",
          "name": "owner",
          "type": "address"
        },
        {
          "internalType": "address",
          "name": "spender",
          "type": "address"
        }
      ],
      "name": "allowance",
      "outputs": [
        {
          "internalType": "uint256",
          "name": "",
          "type": "uint256"
        }
      ],
      "stateMutability": "view",
      "type": "function"
    },
    {
      "inputs": [
        {
          "internalType": "address",
          "name": "spender",
          "type": "address"
        },
        {
          "internalType": "uint256",
          "name": "amount",
          "type": "uint256"
        }
      ],
      "name": "approve",
      "outputs": [
        {
          "internalType": "bool",
          "name": "",
          "type": "bool"
        }
      ],
      "stateMutability": "nonpayable",
      "type": "function"
    },
    {
      "inputs": [
        {
          "internalType": "address",
          "name": "account",
          "type": "address"
        }
      ],
      "name": "balanceOf",
      "outputs": [
        {
          "internalType": "uint256",
          "name": "",
          "type": "uint256"
        }
      ],
      "stateMutability": "view",
      "type": "function"
    },
    {
      "inputs": [],
      "name": "cap",
      "outputs": [
        {
          "internalType": "uint256",
          "name": "",
          "type": "uint256"
        }
      ],
      "stateMutability": "view",
      "type": "function"
    },
    {
      "inputs": [],
      "name": "decimals",
      "outputs": [
        {
          "internalType": "uint8",
          "name": "",
          "type": "uint8"
        }
      ],
      "stateMutability": "view",
      "type": "function"
    },
    {
      "inputs": [
        {
          "internalType": "address",
          "name": "spender",
          "type": "address"
        },
        {
          "internalType": "uint256",
          "name": "subtractedValue",
          "type": "uint256"
        }
      ],
      "name": "decreaseAllowance",
      "outputs": [
        {
          "internalType": "bool",
          "name": "",
          "type": "bool"
        }
      ],
      "stateMutability": "nonpayable",
      "type": "function"
    },
    {
      "inputs": [],
      "name": "finishMinting",
      "outputs": [],
      "stateMutability": "nonpayable",
      "type": "function"
    },
    {
      "inputs": [
        {
          "internalType": "address",
          "name": "spender",
          "type": "address"
        },
        {
          "internalType": "uint256",
          "name": "addedValue",
          "type": "uint256"
        }
      ],
      "name": "increaseAllowance",
      "outputs": [
        {
          "internalType": "bool",
          "name": "",
          "type": "bool"
        }
      ],
      "stateMutability": "nonpayable",
      "type": "function"
    },
    {
      "inputs": [
        {
          "internalType": "address",
          "name": "account",
          "type": "address"
        },
        {
          "internalType": "uint256",
          "name": "amount",
          "type": "uint256"
        }
      ],
      "name": "mint",
      "outputs": [],
      "stateMutability": "nonpayable",
      "type": "function"
    },
    {
      "inputs": [],
      "name": "mintingFinished",
      "outputs": [
        {
          "internalType": "bool",
          "name": "",
          "type": "bool"
        }
      ],
      "stateMutability": "view",
      "type": "function"
    },
    {
      "inputs": [],
      "name": "name",
      "outputs": [
        {
          "internalType": "string",
          "name": "",
          "type": "string"
        }
      ],
      "stateMutability": "view",
      "type": "function"
    },
    {
      "inputs": [],
      "name": "owner",
      "outputs": [
        {
          "internalType": "address",
          "name": "",
          "type": "address"
        }
      ],
      "stateMutability": "view",
      "type": "function"
    },
    {
      "inputs": [],
      "name": "renounceOwnership",
      "outputs": [],
      "stateMutability": "nonpayable",
      "type": "function"
    },
    {
      "inputs": [],
      "name": "symbol",
      "outputs": [
        {
          "internalType": "string",
          "name": "",
          "type": "string"
        }
      ],
      "stateMutability": "view",
      "type": "function"
    },
    {
      "inputs": [],
      "name": "totalSupply",
      "outputs": [
        {
          "internalType": "uint256",
          "name": "",
          "type": "uint256"
        }
      ],
      "stateMutability": "view",
      "type": "function"
    },
    {
      "inputs": [
        {
          "internalType": "address",
          "name": "recipient",
          "type": "address"
        },
        {
          "internalType": "uint256",
          "name": "amount",
          "type": "uint256"
        }
      ],
      "name": "transfer",
      "outputs": [
        {
          "internalType": "bool",
          "name": "",
          "type": "bool"
        }
      ],
      "stateMutability": "nonpayable",
      "type": "function"
    },
    {
      "inputs": [
        {
          "internalType": "address",
          "name": "sender",
          "type": "address"
        },
        {
          "internalType": "address",
          "name": "recipient",
          "type": "address"
        },
        {
          "internalType": "uint256",
          "name": "amount",
          "type": "uint256"
        }
      ],
      "name": "transferFrom",
      "outputs": [
        {
          "internalType": "bool",
          "name": "",
          "type": "bool"
        }
      ],
      "stateMutability": "nonpayable",
      "type": "function"
    },
    {
      "inputs": [
        {
          "internalType": "address",
          "name": "newOwner",
          "type": "address"
        }
      ],
      "name": "transferOwnership",
      "outputs": [],
      "stateMutability": "nonpayable",
      "type": "function"
    }
  ],
  "bytecode": "0x60806040526000600760006101000a81548160ff0219169083151502179055503480156200002c57600080fd5b5060405162002ad638038062002ad6833981810160405281019062000052919062000716565b81858581600390805190602001906200006d929190620005c6565b50806004908051906020019062000086929190620005c6565b506012600560006101000a81548160ff021916908360ff160217905550505060008111620000eb576040517f08c379a0000000000000000000000000000000000000000000000000000000008152600401620000e29062000925565b60405180910390fd5b8060068190555050600062000105620001e160201b60201c565b905080600760016101000a81548173ffffffffffffffffffffffffffffffffffffffff021916908373ffffffffffffffffffffffffffffffffffffffff1602179055508073ffffffffffffffffffffffffffffffffffffffff16600073ffffffffffffffffffffffffffffffffffffffff167f8be0079c531659141344cd1fd0a4f28419497f9722a3daafe3b4186f6b6457e060405160405180910390a350620001b583620001e960201b60201c565b620001d6620001c9620001e160201b60201c565b826200020760201b60201c565b505050505062000c05565b600033905090565b80600560006101000a81548160ff021916908360ff16021790555050565b62000217620001e160201b60201c565b73ffffffffffffffffffffffffffffffffffffffff16600760019054906101000a900473ffffffffffffffffffffffffffffffffffffffff1673ffffffffffffffffffffffffffffffffffffffff1614620002a9576040517f08c379a0000000000000000000000000000000000000000000000000000000008152600401620002a09062000969565b60405180910390fd5b620002c08282620002c460201b62000c541760201c565b5050565b600073ffffffffffffffffffffffffffffffffffffffff168273ffffffffffffffffffffffffffffffffffffffff16141562000337576040517f08c379a00000000000000000000000000000000000000000000000000000000081526004016200032e90620009ad565b60405180910390fd5b6200034b600083836200047360201b60201c565b62000367816002546200049060201b62000de81790919060201c565b600281905550620003c5816000808573ffffffffffffffffffffffffffffffffffffffff1673ffffffffffffffffffffffffffffffffffffffff168152602001908152602001600020546200049060201b62000de81790919060201c565b6000808473ffffffffffffffffffffffffffffffffffffffff1673ffffffffffffffffffffffffffffffffffffffff168152602001908152602001600020819055508173ffffffffffffffffffffffffffffffffffffffff16600073ffffffffffffffffffffffffffffffffffffffff167fddf252ad1be2c89b69c2b068fc378daa952ba7f163c4a11628f55a4df523b3ef83604051620004679190620009cf565b60405180910390a35050565b6200048b838383620004f360201b62000e461760201c565b505050565b6000808284620004a1919062000a64565b905083811015620004e9576040517f08c379a0000000000000000000000000000000000000000000000000000000008152600401620004e09062000947565b60405180910390fd5b8091505092915050565b6200050b838383620005b760201b62000eea1760201c565b600073ffffffffffffffffffffffffffffffffffffffff168373ffffffffffffffffffffffffffffffffffffffff161415620005b2576006546200056d8262000559620005bc60201b60201c565b6200049060201b62000de81790919060201c565b1115620005b1576040517f08c379a0000000000000000000000000000000000000000000000000000000008152600401620005a8906200098b565b60405180910390fd5b5b505050565b505050565b6000600254905090565b828054620005d49062000b0e565b90600052602060002090601f016020900481019282620005f8576000855562000644565b82601f106200061357805160ff191683800117855562000644565b8280016001018555821562000644579182015b828111156200064357825182559160200191906001019062000626565b5b50905062000653919062000657565b5090565b5b808211156200067257600081600090555060010162000658565b5090565b60006200068d620006878462000a20565b620009ec565b905082815260208101848484011115620006a657600080fd5b620006b384828562000ad8565b509392505050565b600082601f830112620006cd57600080fd5b8151620006df84826020860162000676565b91505092915050565b600081519050620006f98162000bd1565b92915050565b600081519050620007108162000beb565b92915050565b600080600080600060a086880312156200072f57600080fd5b600086015167ffffffffffffffff8111156200074a57600080fd5b6200075888828901620006bb565b955050602086015167ffffffffffffffff8111156200077657600080fd5b6200078488828901620006bb565b94505060406200079788828901620006ff565b9350506060620007aa88828901620006e8565b9250506080620007bd88828901620006e8565b9150509295509295909350565b6000620007d960158362000a53565b91507f45524332304361707065643a20636170206973203000000000000000000000006000830152602082019050919050565b60006200081b601b8362000a53565b91507f536166654d6174683a206164646974696f6e206f766572666c6f7700000000006000830152602082019050919050565b60006200085d60208362000a53565b91507f4f776e61626c653a2063616c6c6572206973206e6f7420746865206f776e65726000830152602082019050919050565b60006200089f60198362000a53565b91507f45524332304361707065643a20636170206578636565646564000000000000006000830152602082019050919050565b6000620008e1601f8362000a53565b91507f45524332303a206d696e7420746f20746865207a65726f2061646472657373006000830152602082019050919050565b6200091f8162000ac1565b82525050565b600060208201905081810360008301526200094081620007ca565b9050919050565b6000602082019050818103600083015262000962816200080c565b9050919050565b6000602082019050818103600083015262000984816200084e565b9050919050565b60006020820190508181036000830152620009a68162000890565b9050919050565b60006020820190508181036000830152620009c881620008d2565b9050919050565b6000602082019050620009e6600083018462000914565b92915050565b6000604051905081810181811067ffffffffffffffff8211171562000a165762000a1562000ba2565b5b8060405250919050565b600067ffffffffffffffff82111562000a3e5762000a3d62000ba2565b5b601f19601f8301169050602081019050919050565b600082825260208201905092915050565b600062000a718262000ac1565b915062000a7e8362000ac1565b9250827fffffffffffffffffffffffffffffffffffffffffffffffffffffffffffffffff0382111562000ab65762000ab562000b44565b5b828201905092915050565b6000819050919050565b600060ff82169050919050565b60005b8381101562000af857808201518184015260208101905062000adb565b8381111562000b08576000848401525b50505050565b6000600282049050600182168062000b2757607f821691505b6020821081141562000b3e5762000b3d62000b73565b5b50919050565b7f4e487b7100000000000000000000000000000000000000000000000000000000600052601160045260246000fd5b7f4e487b7100000000000000000000000000000000000000000000000000000000600052602260045260246000fd5b7f4e487b7100000000000000000000000000000000000000000000000000000000600052604160045260246000fd5b62000bdc8162000ac1565b811462000be857600080fd5b50565b62000bf68162000acb565b811462000c0257600080fd5b50565b611ec18062000c156000396000f3fe608060405234801561001057600080fd5b50600436106101165760003560e01c806370a08231116100a257806395d89b411161007157806395d89b41146102bf578063a457c2d7146102dd578063a9059cbb1461030d578063dd62ed3e1461033d578063f2fde38b1461036d57610116565b806370a082311461025d578063715018a61461028d5780637d64bcb4146102975780638da5cb5b146102a157610116565b806323b872dd116100e957806323b872dd146101a5578063313ce567146101d5578063355274ea146101f3578063395093511461021157806340c10f191461024157610116565b806305d2035b1461011b57806306fdde0314610139578063095ea7b31461015757806318160ddd14610187575b600080fd5b610123610389565b6040516101309190611a68565b60405180910390f35b6101416103a0565b60405161014e9190611a83565b60405180910390f35b610171600480360381019061016c9190611638565b610432565b60405161017e9190611a68565b60405180910390f35b61018f610450565b60405161019c9190611be5565b60405180910390f35b6101bf60048036038101906101ba91906115e9565b61045a565b6040516101cc9190611a68565b60405180910390f35b6101dd610533565b6040516101ea9190611c00565b60405180910390f35b6101fb61054a565b6040516102089190611be5565b60405180910390f35b61022b60048036038101906102269190611638565b610554565b6040516102389190611a68565b60405180910390f35b61025b60048036038101906102569190611638565b610607565b005b61027760048036038101906102729190611584565b610665565b6040516102849190611be5565b60405180910390f35b6102956106ad565b005b61029f610805565b005b6102a961085f565b6040516102b69190611a4d565b60405180910390f35b6102c7610889565b6040516102d49190611a83565b60405180910390f35b6102f760048036038101906102f29190611638565b61091b565b6040516103049190611a68565b60405180910390f35b61032760048036038101906103229190611638565b6109e8565b6040516103349190611a68565b60405180910390f35b610357600480360381019061035291906115ad565b610a06565b6040516103649190611be5565b60405180910390f35b61038760048036038101906103829190611584565b610a8d565b005b6000600760009054906101000a900460ff16905090565b6060600380546103af90611d49565b80601f01602080910402602001604051908101604052809291908181526020018280546103db90611d49565b80156104285780601f106103fd57610100808354040283529160200191610428565b820191906000526020600020905b81548152906001019060200180831161040b57829003601f168201915b5050505050905090565b600061044661043f610eef565b8484610ef7565b6001905092915050565b6000600254905090565b60006104678484846110c2565b61052884610473610eef565b61052385604051806060016040528060288152602001611e3f60289139600160008b73ffffffffffffffffffffffffffffffffffffffff1673ffffffffffffffffffffffffffffffffffffffff16815260200190815260200160002060006104d9610eef565b73ffffffffffffffffffffffffffffffffffffffff1673ffffffffffffffffffffffffffffffffffffffff168152602001908152602001600020546113579092919063ffffffff16565b610ef7565b600190509392505050565b6000600560009054906101000a900460ff16905090565b6000600654905090565b60006105fd610561610eef565b846105f88560016000610572610eef565b73ffffffffffffffffffffffffffffffffffffffff1673ffffffffffffffffffffffffffffffffffffffff16815260200190815260200160002060008973ffffffffffffffffffffffffffffffffffffffff1673ffffffffffffffffffffffffffffffffffffffff16815260200190815260200160002054610de890919063ffffffff16565b610ef7565b6001905092915050565b600760009054906101000a900460ff1615610657576040517f08c379a000000000000000000000000000000000000000000000000000000000815260040161064e90611ba5565b60405180910390fd5b61066182826113bb565b5050565b60008060008373ffffffffffffffffffffffffffffffffffffffff1673ffffffffffffffffffffffffffffffffffffffff168152602001908152602001600020549050919050565b6106b5610eef565b73ffffffffffffffffffffffffffffffffffffffff16600760019054906101000a900473ffffffffffffffffffffffffffffffffffffffff1673ffffffffffffffffffffffffffffffffffffffff1614610744576040517f08c379a000000000000000000000000000000000000000000000000000000000815260040161073b90611b25565b60405180910390fd5b600073ffffffffffffffffffffffffffffffffffffffff16600760019054906101000a900473ffffffffffffffffffffffffffffffffffffffff1673ffffffffffffffffffffffffffffffffffffffff167f8be0079c531659141344cd1fd0a4f28419497f9722a3daafe3b4186f6b6457e060405160405180910390a36000600760016101000a81548173ffffffffffffffffffffffffffffffffffffffff021916908373ffffffffffffffffffffffffffffffffffffffff160217905550565b600760009054906101000a900460ff1615610855576040517f08c379a000000000000000000000000000000000000000000000000000000000815260040161084c90611ba5565b60405180910390fd5b61085d611460565b565b6000600760019054906101000a900473ffffffffffffffffffffffffffffffffffffffff16905090565b60606004805461089890611d49565b80601f01602080910402602001604051908101604052809291908181526020018280546108c490611d49565b80156109115780601f106108e657610100808354040283529160200191610911565b820191906000526020600020905b8154815290600101906020018083116108f457829003601f168201915b5050505050905090565b60006109de610928610eef565b846109d985604051806060016040528060258152602001611e676025913960016000610952610eef565b73ffffffffffffffffffffffffffffffffffffffff1673ffffffffffffffffffffffffffffffffffffffff16815260200190815260200160002060008a73ffffffffffffffffffffffffffffffffffffffff1673ffffffffffffffffffffffffffffffffffffffff168152602001908152602001600020546113579092919063ffffffff16565b610ef7565b6001905092915050565b60006109fc6109f5610eef565b84846110c2565b6001905092915050565b6000600160008473ffffffffffffffffffffffffffffffffffffffff1673ffffffffffffffffffffffffffffffffffffffff16815260200190815260200160002060008373ffffffffffffffffffffffffffffffffffffffff1673ffffffffffffffffffffffffffffffffffffffff16815260200190815260200160002054905092915050565b610a95610eef565b73ffffffffffffffffffffffffffffffffffffffff16600760019054906101000a900473ffffffffffffffffffffffffffffffffffffffff1673ffffffffffffffffffffffffffffffffffffffff1614610b24576040517f08c379a0000000000000000000000000000000000000000000000000000000008152600401610b1b90611b25565b60405180910390fd5b600073ffffffffffffffffffffffffffffffffffffffff168173ffffffffffffffffffffffffffffffffffffffff161415610b94576040517f08c379a0000000000000000000000000000000000000000000000000000000008152600401610b8b90611ac5565b60405180910390fd5b8073ffffffffffffffffffffffffffffffffffffffff16600760019054906101000a900473ffffffffffffffffffffffffffffffffffffffff1673ffffffffffffffffffffffffffffffffffffffff167f8be0079c531659141344cd1fd0a4f28419497f9722a3daafe3b4186f6b6457e060405160405180910390a380600760016101000a81548173ffffffffffffffffffffffffffffffffffffffff021916908373ffffffffffffffffffffffffffffffffffffffff16021790555050565b600073ffffffffffffffffffffffffffffffffffffffff168273ffffffffffffffffffffffffffffffffffffffff161415610cc4576040517f08c379a0000000000000000000000000000000000000000000000000000000008152600401610cbb90611bc5565b60405180910390fd5b610cd060008383611501565b610ce581600254610de890919063ffffffff16565b600281905550610d3c816000808573ffffffffffffffffffffffffffffffffffffffff1673ffffffffffffffffffffffffffffffffffffffff16815260200190815260200160002054610de890919063ffffffff16565b6000808473ffffffffffffffffffffffffffffffffffffffff1673ffffffffffffffffffffffffffffffffffffffff168152602001908152602001600020819055508173ffffffffffffffffffffffffffffffffffffffff16600073ffffffffffffffffffffffffffffffffffffffff167fddf252ad1be2c89b69c2b068fc378daa952ba7f163c4a11628f55a4df523b3ef83604051610ddc9190611be5565b60405180910390a35050565b6000808284610df79190611c37565b905083811015610e3c576040517f08c379a0000000000000000000000000000000000000000000000000000000008152600401610e3390611b05565b60405180910390fd5b8091505092915050565b610e51838383610eea565b600073ffffffffffffffffffffffffffffffffffffffff168373ffffffffffffffffffffffffffffffffffffffff161415610ee557600654610ea382610e95610450565b610de890919063ffffffff16565b1115610ee4576040517f08c379a0000000000000000000000000000000000000000000000000000000008152600401610edb90611b65565b60405180910390fd5b5b505050565b505050565b600033905090565b600073ffffffffffffffffffffffffffffffffffffffff168373ffffffffffffffffffffffffffffffffffffffff161415610f67576040517f08c379a0000000000000000000000000000000000000000000000000000000008152600401610f5e90611b85565b60405180910390fd5b600073ffffffffffffffffffffffffffffffffffffffff168273ffffffffffffffffffffffffffffffffffffffff161415610fd7576040517f08c379a0000000000000000000000000000000000000000000000000000000008152600401610fce90611ae5565b60405180910390fd5b80600160008573ffffffffffffffffffffffffffffffffffffffff1673ffffffffffffffffffffffffffffffffffffffff16815260200190815260200160002060008473ffffffffffffffffffffffffffffffffffffffff1673ffffffffffffffffffffffffffffffffffffffff168152602001908152602001600020819055508173ffffffffffffffffffffffffffffffffffffffff168373ffffffffffffffffffffffffffffffffffffffff167f8c5be1e5ebec7d5bd14f71427d1e84f3dd0314c0f7b2291e5b200ac8c7c3b925836040516110b59190611be5565b60405180910390a3505050565b600073ffffffffffffffffffffffffffffffffffffffff168373ffffffffffffffffffffffffffffffffffffffff161415611132576040517f08c379a000000000000000000000000000000000000000000000000000000000815260040161112990611b45565b60405180910390fd5b600073ffffffffffffffffffffffffffffffffffffffff168273ffffffffffffffffffffffffffffffffffffffff1614156111a2576040517f08c379a000000000000000000000000000000000000000000000000000000000815260040161119990611aa5565b60405180910390fd5b6111ad838383611501565b61121881604051806060016040528060268152602001611e19602691396000808773ffffffffffffffffffffffffffffffffffffffff1673ffffffffffffffffffffffffffffffffffffffff168152602001908152602001600020546113579092919063ffffffff16565b6000808573ffffffffffffffffffffffffffffffffffffffff1673ffffffffffffffffffffffffffffffffffffffff168152602001908152602001600020819055506112ab816000808573ffffffffffffffffffffffffffffffffffffffff1673ffffffffffffffffffffffffffffffffffffffff16815260200190815260200160002054610de890919063ffffffff16565b6000808473ffffffffffffffffffffffffffffffffffffffff1673ffffffffffffffffffffffffffffffffffffffff168152602001908152602001600020819055508173ffffffffffffffffffffffffffffffffffffffff168373ffffffffffffffffffffffffffffffffffffffff167fddf252ad1be2c89b69c2b068fc378daa952ba7f163c4a11628f55a4df523b3ef8360405161134a9190611be5565b60405180910390a3505050565b600083831115829061139f576040517f08c379a00000000000000000000000000000000000000000000000000000000081526004016113969190611a83565b60405180910390fd5b50600083856113ae9190611c8d565b9050809150509392505050565b6113c3610eef565b73ffffffffffffffffffffffffffffffffffffffff16600760019054906101000a900473ffffffffffffffffffffffffffffffffffffffff1673ffffffffffffffffffffffffffffffffffffffff1614611452576040517f08c379a000000000000000000000000000000000000000000000000000000000815260040161144990611b25565b60405180910390fd5b61145c8282610c54565b5050565b611468610eef565b73ffffffffffffffffffffffffffffffffffffffff16600760019054906101000a900473ffffffffffffffffffffffffffffffffffffffff1673ffffffffffffffffffffffffffffffffffffffff16146114f7576040517f08c379a00000000000000000000000000000000000000000000000000000000081526004016114ee90611b25565b60405180910390fd5b6114ff611511565b565b61150c838383610e46565b505050565b6001600760006101000a81548160ff0219169083151502179055507fae5184fba832cb2b1f702aca6117b8d265eaf03ad33eb133f19dde0f5920fa0860405160405180910390a1565b60008135905061156981611dea565b92915050565b60008135905061157e81611e01565b92915050565b60006020828403121561159657600080fd5b60006115a48482850161155a565b91505092915050565b600080604083850312156115c057600080fd5b60006115ce8582860161155a565b92505060206115df8582860161155a565b9150509250929050565b6000806000606084860312156115fe57600080fd5b600061160c8682870161155a565b935050602061161d8682870161155a565b925050604061162e8682870161156f565b9150509250925092565b6000806040838503121561164b57600080fd5b60006116598582860161155a565b925050602061166a8582860161156f565b9150509250929050565b61167d81611cc1565b82525050565b61168c81611cd3565b82525050565b600061169d82611c1b565b6116a78185611c26565b93506116b7818560208601611d16565b6116c081611dd9565b840191505092915050565b60006116d8602383611c26565b91507f45524332303a207472616e7366657220746f20746865207a65726f206164647260008301527f65737300000000000000000000000000000000000000000000000000000000006020830152604082019050919050565b600061173e602683611c26565b91507f4f776e61626c653a206e6577206f776e657220697320746865207a65726f206160008301527f64647265737300000000000000000000000000000000000000000000000000006020830152604082019050919050565b60006117a4602283611c26565b91507f45524332303a20617070726f766520746f20746865207a65726f20616464726560008301527f73730000000000000000000000000000000000000000000000000000000000006020830152604082019050919050565b600061180a601b83611c26565b91507f536166654d6174683a206164646974696f6e206f766572666c6f7700000000006000830152602082019050919050565b600061184a602083611c26565b91507f4f776e61626c653a2063616c6c6572206973206e6f7420746865206f776e65726000830152602082019050919050565b600061188a602583611c26565b91507f45524332303a207472616e736665722066726f6d20746865207a65726f20616460008301527f64726573730000000000000000000000000000000000000000000000000000006020830152604082019050919050565b60006118f0601983611c26565b91507f45524332304361707065643a20636170206578636565646564000000000000006000830152602082019050919050565b6000611930602483611c26565b91507f45524332303a20617070726f76652066726f6d20746865207a65726f2061646460008301527f72657373000000000000000000000000000000000000000000000000000000006020830152604082019050919050565b6000611996602283611c26565b91507f45524332304d696e7461626c653a206d696e74696e672069732066696e69736860008301527f65640000000000000000000000000000000000000000000000000000000000006020830152604082019050919050565b60006119fc601f83611c26565b91507f45524332303a206d696e7420746f20746865207a65726f2061646472657373006000830152602082019050919050565b611a3881611cff565b82525050565b611a4781611d09565b82525050565b6000602082019050611a626000830184611674565b92915050565b6000602082019050611a7d6000830184611683565b92915050565b60006020820190508181036000830152611a9d8184611692565b905092915050565b60006020820190508181036000830152611abe816116cb565b9050919050565b60006020820190508181036000830152611ade81611731565b9050919050565b60006020820190508181036000830152611afe81611797565b9050919050565b60006020820190508181036000830152611b1e816117fd565b9050919050565b60006020820190508181036000830152611b3e8161183d565b9050919050565b60006020820190508181036000830152611b5e8161187d565b9050919050565b60006020820190508181036000830152611b7e816118e3565b9050919050565b60006020820190508181036000830152611b9e81611923565b9050919050565b60006020820190508181036000830152611bbe81611989565b9050919050565b60006020820190508181036000830152611bde816119ef565b9050919050565b6000602082019050611bfa6000830184611a2f565b92915050565b6000602082019050611c156000830184611a3e565b92915050565b600081519050919050565b600082825260208201905092915050565b6000611c4282611cff565b9150611c4d83611cff565b9250827fffffffffffffffffffffffffffffffffffffffffffffffffffffffffffffffff03821115611c8257611c81611d7b565b5b828201905092915050565b6000611c9882611cff565b9150611ca383611cff565b925082821015611cb657611cb5611d7b565b5b828203905092915050565b6000611ccc82611cdf565b9050919050565b60008115159050919050565b600073ffffffffffffffffffffffffffffffffffffffff82169050919050565b6000819050919050565b600060ff82169050919050565b60005b83811015611d34578082015181840152602081019050611d19565b83811115611d43576000848401525b50505050565b60006002820490506001821680611d6157607f821691505b60208210811415611d7557611d74611daa565b5b50919050565b7f4e487b7100000000000000000000000000000000000000000000000000000000600052601160045260246000fd5b7f4e487b7100000000000000000000000000000000000000000000000000000000600052602260045260246000fd5b6000601f19601f8301169050919050565b611df381611cc1565b8114611dfe57600080fd5b50565b611e0a81611cff565b8114611e1557600080fd5b5056fe45524332303a207472616e7366657220616d6f756e7420657863656564732062616c616e636545524332303a207472616e7366657220616d6f756e74206578636565647320616c6c6f77616e636545524332303a2064656372656173656420616c6c6f77616e63652062656c6f77207a65726fa2646970667358221220886c37825ba3dcbc02126b80caa85e199e432d9d5c0f99a4a3c32190f83f912364736f6c63430008000033",
  "linkReferences": {},
  "deployedLinkReferences": {}
}